:060000000A128A110C280F
:10000800FE00030EF1000A08F2000A128A11942A6F
:100018000A128A110F280A128A11F3220A128A1167
:10002800B6000A128A11F4220A128A11B700B30123
:10003800B401B501FA0183010A128A112328073095
:10004800831603138900831203138901831603138C
:100058008801831203138801831603138601753000
:100068008F0000300A128A116A220A128A11063099
:10007800F3000030F4000A128A11FA200A128A11D9
:100088000730F3000030F4000A128A11FA200A122D
:100098008A11003083120313AB000030AA00253008
:1000A800A9008030A800AC01AC0A0A128A118F217D
:1000B8000A128A1106300A128A11A9220A128A1112
:1000C80083120313B50007300A128A11A9220A12F3
:1000D8008A1183120313B4004630350203187528B9
:1000E80076287828FA147928FA10C9303502031CC2
:1000F8007E287F288128FA158228FA114630340292
:100108000318872888288A287A158B287A11C930F5
:100118003402031C9028912893287A1694287A127E
:100128007A14091C98287A107A1A9B289F28831217
:1001380003138817A2288312031388137A19A52892
:10014800A928831203130817AC2883120313081372
:10015800FA19AF28B328831203138816B628831216
:1001680003138812FA18B928BD2883120313081636
:10017800C0288312031308127A18C328C7288312C9
:1001880003138815CA2883120313881100307A18BC
:1001980010307A19083EFA18043E7A1A023EFA1903
:1001A800013EF900790833060319DB28DC28E72823
:1001B80079080319E028E128E72879080A128A1142
:1001C800D7220A128A11790883120313B3001A304E
:1001D80083120313B200F730B100B10BF128B20B50
:1001E800F128F6285E280A128A110C285D29831640
:1001F800031708148316031305148E29831603178F
:1002080088148316031385148E298316031708157B
:100218008316031305158E2983160317881583166D
:10022800031385158E2983160317081683160313DF
:1002380085168E2983160317881683160313091447
:100248008E298316031708178316031389148E291A
:100258008316031788178316031309158E29831627
:10026800031709148316031306158E29831603171B
:1002780089148316031386158E2983160317091507
:100288008316031386148E2983160317891583167C
:10029800031306168E2983160317091683160313EC
:1002A80006148E29831603178916831603138616D8
:1002B8008E297408003A031962298E297308003AB6
:1002C8000319FB28013A03190229033A03190929DA
:1002D800013A03191029073A03191729013A031992
:1002E8001E29033A03192529013A03192C290F3A23
:1002F80003193329013A03193A29033A0319412901
:10030800013A03194829073A03194F29013A0319F1
:1003180056298E290800831203132C08031D9529DA
:100328009629C5292808AD002908AE002A08AF007B
:100338002B08B00006300310AD0DAE0DAF0DB00D9B
:10034800FF3E031D9F293008A3002F08A2002E0896
:10035800A1002D08A0000030A7007A30A6001230B6
:10036800A5000030A4000A128A1102220A128A117A
:10037800831203132008FF3E8316031399001811F4
:10038800F3292808AD002908AE002A08AF002B0879
:10039800B00004300310AD0DAE0DAF0DB00DFF3E33
:1003A800031DCE293008A3002F08A2002E08A100A3
:1003B8002D08A0000030A7007A30A6001230A50052
:1003C8000030A4000A128A1102220A128A1183122A
:1003D80003132008FF3E83160313990018151813FA
:1003E8009816181283120313981718131816181151
:1003F8009810831603130615861208000030F700BC
:100408000030F6000030F5000030F40083120313CA
:1004180023082204210420040319132A142A612A18
:10042800F801F80A242A0130F3000310A00DA10DE9
:10043800A20DA30DF30B192A0130F3007308F80776
:10044800A31F272A282A172A0130F3000310F40DC6
:10045800F50DF60DF70DF30B2A2A23082702031DC5
:100468003F2A22082602031D3F2A21082502031DD0
:100478003F2A20082402031C422A432A522A200821
:10048800A4022108031C210FA5022208031C220F25
:10049800A6022308031C230FA702741401300310BB
:1004A800A30CA20CA10CA00CFF3E031D532A013083
:1004B800F802031D602A612A282A7708A300760813
:1004C800A2007508A1007408A0000800F4007403D5
:1004D800031D6F2A702A762A8B170B1783160313AE
:1004E8000C13792A831603130C139F131F129F12E0
:1004F8008316031788018901831203131F083F39E4
:1005080040389F00C3309F052130F300F30B8A2A3F
:10051800831203131F142130F300F30B912A0800F0
:10052800831203138C1E992A9A2AA22A0A128A1164
:10053800C9220A128A11831203138C1272088A00C4
:10054800710E8300FE0E7E0E0900F60076080A1270
:100558008A11BB220A128A111030F500F50BB22A53
:1005680000000A128A11E3220A128A110800F40014
:100578007408F300F30DF30D831203131F087306B9
:10058800C33973069F009F1408000A128A11EC22CF
:100598000A128A11003A0319D22AD32AC92A8312C5
:1005A80003131A080800F30083160313981CDD2AA6
:1005B800DE2AD82A730883120313990008008312CD
:1005C80003130C1FE82AE92AEA2A0C131E0808005C
:1005D800831203130C0EF000700C01390800073465
:0205E8000634D7
:08400000FF3FFF3FFF3FFF3FC0
:04400E00D420FF3F7C
:00000001FF
