:060000000A128A11E82F2C
:100D300007340634831203130C1F9F2EA02EA12EFE
:100D40000C131E080800F9007908F800F80DF80DDA
:100D5000831203131F087806C33978069F009F1477
:100D60000800FB007B080A128A11A3260A128A11C6
:100D70001030FA00FA0BBA2E00000A128A119A26D5
:100D80000A128A110800F9007903031DC82EC92E22
:100D9000CF2E8B170B17831603130C13D22E83162B
:100DA00003130C139F131F129F128316031788013E
:100DB0008901831203131F083F3940389F00C33055
:100DC0009F052130F800F80BE32E831203131F1444
:100DD0002130F800F80BEA2E0800073083160313C1
:100DE0008900831203138901831603138801831278
:100DF0000313880100300A128A11C3260A128A11CD
:100E00000630F8000030F9000A128A1153270A123E
:100E10008A110730F8000030F9000A128A115327AE
:100E20000A128A1106300A128A11B1260A128A1190
:100E3000F20007300A128A11B1260A128A11F10053
:100E4000463072020318252F262F2A2F83120313F0
:100E500088172D2F831203138813C9307202031CC5
:100E6000322F332F352F0817362F081346307102D3
:100E700003183B2F3C2F3E2F88163F2F8812C93076
:100E80007102031C442F452F472F0816482F0812C4
:100E900009184B2F4C2F4E2F8815122F8811122F07
:100EA0000A128A110028B62F831603170814831616
:100EB00003130514E72F83160317881483160313EF
:100EC0008514E72F831603170815831603130515DA
:100ED000E72F831603178815831603138515E72F4D
:100EE000831603170816831603138516E72F831638
:100EF00003178816831603130914E72F83160317A5
:100F00000817831603138914E72F8316031788170E
:100F1000831603130915E72F831603170914831685
:100F200003130615E72F831603178914831603137B
:100F30008615E72F831603170915831603138614E6
:100F4000E72F831603178915831603130616E72F59
:100F5000831603170916831603130614E72F831647
:100F600003178916831603138616E72F7908003AAC
:100F70000319BB2FE72F7808003A0319542F013AC1
:100F800003195B2F033A0319622F013A0319692FE2
:100F9000073A0319702F013A0319772F033A0319FF
:100FA0007E2F013A0319852F0F3A03198C2F013A2E
:100FB0000319932F033A03199A2F013A0319A12F0A
:100FC000073A0319A82F013A0319AF2FE72F08009A
:100FD0000A128A1198260A128A11FC000A128A1132
:100FE00099260A128A11FD00F001F101F201F301C4
:100FF000F401F501F601F70183010A128A11ED2EC1
:08400000FF3FFF3FFF3FFF3FC0
:04400E00D420FF3F7C
:00000001FF
